{
  "contractName": "IpfsDiary",
  "abi": [
    {
      "inputs": [
        {
          "internalType": "address",
          "name": "initialOwner",
          "type": "address"
        }
      ],
      "stateMutability": "nonpayable",
      "type": "constructor"
    },
    {
      "inputs": [
        {
          "internalType": "address",
          "name": "owner",
          "type": "address"
        }
      ],
      "name": "OwnableInvalidOwner",
      "type": "error"
    },
    {
      "inputs": [
        {
          "internalType": "address",
          "name": "account",
          "type": "address"
        }
      ],
      "name": "OwnableUnauthorizedAccount",
      "type": "error"
    },
    {
      "anonymous": false,
      "inputs": [
        {
          "indexed": true,
          "internalType": "address",
          "name": "previousOwner",
          "type": "address"
        },
        {
          "indexed": true,
          "internalType": "address",
          "name": "newOwner",
          "type": "address"
        }
      ],
      "name": "OwnershipTransferred",
      "type": "event"
    },
    {
      "inputs": [],
      "name": "owner",
      "outputs": [
        {
          "internalType": "address",
          "name": "",
          "type": "address"
        }
      ],
      "stateMutability": "view",
      "type": "function",
      "constant": true
    },
    {
      "inputs": [],
      "name": "renounceOwnership",
      "outputs": [],
      "stateMutability": "nonpayable",
      "type": "function"
    },
    {
      "inputs": [
        {
          "internalType": "address",
          "name": "newOwner",
          "type": "address"
        }
      ],
      "name": "transferOwnership",
      "outputs": [],
      "stateMutability": "nonpayable",
      "type": "function"
    },
    {
      "inputs": [],
      "name": "currentId",
      "outputs": [
        {
          "internalType": "uint256",
          "name": "",
          "type": "uint256"
        }
      ],
      "stateMutability": "view",
      "type": "function",
      "constant": true
    },
    {
      "inputs": [
        {
          "internalType": "string",
          "name": "_cid",
          "type": "string"
        },
        {
          "internalType": "string",
          "name": "_timestamp_title",
          "type": "string"
        }
      ],
      "name": "addNewDiary",
      "outputs": [],
      "stateMutability": "nonpayable",
      "type": "function"
    },
    {
      "inputs": [
        {
          "internalType": "uint256",
          "name": "_id",
          "type": "uint256"
        }
      ],
      "name": "showDiaryCid",
      "outputs": [
        {
          "internalType": "string",
          "name": "",
          "type": "string"
        }
      ],
      "stateMutability": "view",
      "type": "function",
      "constant": true
    },
    {
      "inputs": [],
      "name": "reset_diaryIdCounter",
      "outputs": [],
      "stateMutability": "nonpayable",
      "type": "function"
    }
  ],
  "bytecode": "0x608060405234801562000010575f80fd5b5060405162000df438038062000df48339818101604052810190620000369190620001e9565b805f73ffffffffffffffffffffffffffffffffffffffff168173ffffffffffffffffffffffffffffffffffffffff1603620000aa575f6040517f1e4fbdf7000000000000000000000000000000000000000000000000000000008152600401620000a191906200022a565b60405180910390fd5b620000bb81620000c360201b60201c565b505062000245565b5f805f9054906101000a900473ffffffffffffffffffffffffffffffffffffffff169050815f806101000a81548173ffffffffffffffffffffffffffffffffffffffff021916908373ffffffffffffffffffffffffffffffffffffffff1602179055508173ffffffffffffffffffffffffffffffffffffffff168173ffffffffffffffffffffffffffffffffffffffff167f8be0079c531659141344cd1fd0a4f28419497f9722a3daafe3b4186f6b6457e060405160405180910390a35050565b5f80fd5b5f73ffffffffffffffffffffffffffffffffffffffff82169050919050565b5f620001b38262000188565b9050919050565b620001c581620001a7565b8114620001d0575f80fd5b50565b5f81519050620001e381620001ba565b92915050565b5f6020828403121562000201576200020062000184565b5b5f6200021084828501620001d3565b91505092915050565b6200022481620001a7565b82525050565b5f6020820190506200023f5f83018462000219565b92915050565b610ba180620002535f395ff3fe608060405234801561000f575f80fd5b506004361061007b575f3560e01c80638da5cb5b116100595780638da5cb5b146100d5578063a959d64f146100f3578063e00dd161146100fd578063f2fde38b1461011b5761007b565b80633c3cdc571461007f578063463f2c2f146100af578063715018a6146100cb575b5f80fd5b610099600480360381019061009491906105ec565b610137565b6040516100a691906106a1565b60405180910390f35b6100c960048036038101906100c49190610722565b61028b565b005b6100d361038a565b005b6100dd61039d565b6040516100ea91906107df565b60405180910390f35b6100fb6103c4565b005b6101056103d5565b6040516101129190610807565b60405180910390f35b6101356004803603810190610130919061084a565b6103de565b005b6060610141610462565b5f60025f8481526020019081526020015f206040518060400160405290815f8201805461016d906108a2565b80601f0160208091040260200160405190810160405280929190818152602001828054610199906108a2565b80156101e45780601f106101bb576101008083540402835291602001916101e4565b820191905f5260205f20905b8154815290600101906020018083116101c757829003601f168201915b505050505081526020016001820180546101fd906108a2565b80601f0160208091040260200160405190810160405280929190818152602001828054610229906108a2565b80156102745780601f1061024b57610100808354040283529160200191610274565b820191905f5260205f20905b81548152906001019060200180831161025757829003601f168201915b5050505050815250509050805f0151915050919050565b610293610462565b60015f81548092919060010191905055505f604051806040016040528086868080601f0160208091040260200160405190810160405280939291908181526020018383808284375f81840152601f19601f82011690508083019250505050505050815260200184848080601f0160208091040260200160405190810160405280939291908181526020018383808284375f81840152601f19601f8201169050808301925050505050505081525090508060025f60015481526020019081526020015f205f820151815f0190816103699190610a9c565b50602082015181600101908161037f9190610a9c565b509050505050505050565b610392610462565b61039b5f6104e9565b565b5f805f9054906101000a900473ffffffffffffffffffffffffffffffffffffffff16905090565b6103cc610462565b5f600181905550565b5f600154905090565b6103e6610462565b5f73ffffffffffffffffffffffffffffffffffffffff168173ffffffffffffffffffffffffffffffffffffffff1603610456575f6040517f1e4fbdf700000000000000000000000000000000000000000000000000000000815260040161044d91906107df565b60405180910390fd5b61045f816104e9565b50565b61046a6105aa565b73ffffffffffffffffffffffffffffffffffffffff1661048861039d565b73ffffffffffffffffffffffffffffffffffffffff16146104e7576104ab6105aa565b6040517f118cdaa70000000000000000000000000000000000000000000000000000000081526004016104de91906107df565b60405180910390fd5b565b5f805f9054906101000a900473ffffffffffffffffffffffffffffffffffffffff169050815f806101000a81548173ffffffffffffffffffffffffffffffffffffffff021916908373ffffffffffffffffffffffffffffffffffffffff1602179055508173ffffffffffffffffffffffffffffffffffffffff168173ffffffffffffffffffffffffffffffffffffffff167f8be0079c531659141344cd1fd0a4f28419497f9722a3daafe3b4186f6b6457e060405160405180910390a35050565b5f33905090565b5f80fd5b5f80fd5b5f819050919050565b6105cb816105b9565b81146105d5575f80fd5b50565b5f813590506105e6816105c2565b92915050565b5f60208284031215610601576106006105b1565b5b5f61060e848285016105d8565b91505092915050565b5f81519050919050565b5f82825260208201905092915050565b5f5b8381101561064e578082015181840152602081019050610633565b5f8484015250505050565b5f601f19601f8301169050919050565b5f61067382610617565b61067d8185610621565b935061068d818560208601610631565b61069681610659565b840191505092915050565b5f6020820190508181035f8301526106b98184610669565b905092915050565b5f80fd5b5f80fd5b5f80fd5b5f8083601f8401126106e2576106e16106c1565b5b8235905067ffffffffffffffff8111156106ff576106fe6106c5565b5b60208301915083600182028301111561071b5761071a6106c9565b5b9250929050565b5f805f806040858703121561073a576107396105b1565b5b5f85013567ffffffffffffffff811115610757576107566105b5565b5b610763878288016106cd565b9450945050602085013567ffffffffffffffff811115610786576107856105b5565b5b610792878288016106cd565b925092505092959194509250565b5f73ffffffffffffffffffffffffffffffffffffffff82169050919050565b5f6107c9826107a0565b9050919050565b6107d9816107bf565b82525050565b5f6020820190506107f25f8301846107d0565b92915050565b610801816105b9565b82525050565b5f60208201905061081a5f8301846107f8565b92915050565b610829816107bf565b8114610833575f80fd5b50565b5f8135905061084481610820565b92915050565b5f6020828403121561085f5761085e6105b1565b5b5f61086c84828501610836565b91505092915050565b7f4e487b71000000000000000000000000000000000000000000000000000000005f52602260045260245ffd5b5f60028204905060018216806108b957607f821691505b6020821081036108cc576108cb610875565b5b50919050565b7f4e487b71000000000000000000000000000000000000000000000000000000005f52604160045260245ffd5b5f819050815f5260205f209050919050565b5f6020601f8301049050919050565b5f82821b905092915050565b5f6008830261095b7fffffffffffffffffffffffffffffffffffffffffffffffffffffffffffffffff82610920565b6109658683610920565b95508019841693508086168417925050509392505050565b5f819050919050565b5f6109a061099b610996846105b9565b61097d565b6105b9565b9050919050565b5f819050919050565b6109b983610986565b6109cd6109c5826109a7565b84845461092c565b825550505050565b5f90565b6109e16109d5565b6109ec8184846109b0565b505050565b5b81811015610a0f57610a045f826109d9565b6001810190506109f2565b5050565b601f821115610a5457610a25816108ff565b610a2e84610911565b81016020851015610a3d578190505b610a51610a4985610911565b8301826109f1565b50505b505050565b5f82821c905092915050565b5f610a745f1984600802610a59565b1980831691505092915050565b5f610a8c8383610a65565b9150826002028217905092915050565b610aa582610617565b67ffffffffffffffff811115610abe57610abd6108d2565b5b610ac882546108a2565b610ad3828285610a13565b5f60209050601f831160018114610b04575f8415610af2578287015190505b610afc8582610a81565b865550610b63565b601f198416610b12866108ff565b5f5b82811015610b3957848901518255600182019150602085019450602081019050610b14565b86831015610b565784890151610b52601f891682610a65565b8355505b6001600288020188555050505b50505050505056fea2646970667358221220cca1234684de8493269916ea863fea5401bbeb0f7eb6f2c219226b5dd457d7ef64736f6c63430008140033",
  "immutableReferences": {},
  "source": "// SPDX-License-Identifier: MIT\n// Compatible with OpenZeppelin Contracts ^5.0.0\npragma solidity ^0.8.20;\n\nimport \"@openzeppelin/contracts/access/Ownable.sol\";\n\ncontract IpfsDiary is Ownable{\n\n    constructor(address initialOwner) Ownable(initialOwner) {\n    }\n\n    struct Diary {\n        string cid;\n        string timestamp_title;\n    }\n\n    uint256 private _diaryIdCounter;\n    mapping(uint256 => Diary) private _idToDiary;\n\n    function currentId() public view returns(uint256){\n        return _diaryIdCounter;\n    }\n\n    function addNewDiary(string calldata _cid, string calldata _timestamp_title)  external onlyOwner(){\n        // _diaryIdCounter\n        unchecked {\n            _diaryIdCounter++;\n        }\n        Diary memory newDiary = Diary(_cid, _timestamp_title);\n        _idToDiary[_diaryIdCounter] = newDiary;\n    }\n\n    function showDiaryCid(uint256 _id) external view onlyOwner returns(string memory){\n        Diary memory targetDiary = _idToDiary[_id];\n        return targetDiary.cid;\n    }\n\n    function reset_diaryIdCounter() external onlyOwner{\n        _diaryIdCounter = 0;\n    }\n}\n",
  "sourcePath": "/Users/taka/daily_to_pin_ipfs/contract_ipfsDiary/contracts/IpfsDiary.sol",
  "compiler": {
    "name": "solc",
    "version": "0.8.20+commit.a1b79de6.Emscripten.clang"
  },
  "schemaVersion": "3.4.16",
  "updatedAt": "2024-02-25T10:10:30.312Z",
  "networkType": "ethereum",
  "devdoc": {
    "errors": {
      "OwnableInvalidOwner(address)": [
        {
          "details": "The owner is not a valid owner account. (eg. `address(0)`)"
        }
      ],
      "OwnableUnauthorizedAccount(address)": [
        {
          "details": "The caller account is not authorized to perform an operation."
        }
      ]
    },
    "kind": "dev",
    "methods": {
      "owner()": {
        "details": "Returns the address of the current owner."
      },
      "renounceOwnership()": {
        "details": "Leaves the contract without owner. It will not be possible to call `onlyOwner` functions. Can only be called by the current owner. NOTE: Renouncing ownership will leave the contract without an owner, thereby disabling any functionality that is only available to the owner."
      },
      "transferOwnership(address)": {
        "details": "Transfers ownership of the contract to a new account (`newOwner`). Can only be called by the current owner."
      }
    },
    "version": 1
  },
  "userdoc": {
    "kind": "user",
    "methods": {},
    "version": 1
  }
}